{
  "address": "0xDc64a140Aa3E981100a9becA4E685f962f0cF6C9",
  "abi": [
    {
      "inputs": [
        {
          "internalType": "address",
          "name": "_nftContract",
          "type": "address"
        }
      ],
      "stateMutability": "nonpayable",
      "type": "constructor"
    },
    {
      "anonymous": false,
      "inputs": [
        {
          "indexed": false,
          "internalType": "uint256",
          "name": "tokenId",
          "type": "uint256"
        },
        {
          "indexed": false,
          "internalType": "uint256",
          "name": "price",
          "type": "uint256"
        },
        {
          "indexed": false,
          "internalType": "address",
          "name": "seller",
          "type": "address"
        }
      ],
      "name": "NFTListed",
      "type": "event"
    },
    {
      "anonymous": false,
      "inputs": [
        {
          "indexed": false,
          "internalType": "uint256",
          "name": "tokenId",
          "type": "uint256"
        },
        {
          "indexed": false,
          "internalType": "uint256",
          "name": "price",
          "type": "uint256"
        },
        {
          "indexed": false,
          "internalType": "address",
          "name": "buyer",
          "type": "address"
        }
      ],
      "name": "NFTPurchased",
      "type": "event"
    },
    {
      "anonymous": false,
      "inputs": [
        {
          "indexed": false,
          "internalType": "uint256",
          "name": "tokenId",
          "type": "uint256"
        },
        {
          "indexed": false,
          "internalType": "address",
          "name": "seller",
          "type": "address"
        }
      ],
      "name": "NFTRemovedFromSale",
      "type": "event"
    },
    {
      "inputs": [
        {
          "internalType": "uint256",
          "name": "tokenId",
          "type": "uint256"
        }
      ],
      "name": "buyNFT",
      "outputs": [],
      "stateMutability": "payable",
      "type": "function"
    },
    {
      "inputs": [
        {
          "internalType": "uint256",
          "name": "tokenId",
          "type": "uint256"
        },
        {
          "internalType": "uint256",
          "name": "price",
          "type": "uint256"
        }
      ],
      "name": "listNFTForSale",
      "outputs": [],
      "stateMutability": "nonpayable",
      "type": "function"
    },
    {
      "inputs": [],
      "name": "nftContract",
      "outputs": [
        {
          "internalType": "contract ERC721",
          "name": "",
          "type": "address"
        }
      ],
      "stateMutability": "view",
      "type": "function"
    },
    {
      "inputs": [
        {
          "internalType": "uint256",
          "name": "",
          "type": "uint256"
        }
      ],
      "name": "nftListings",
      "outputs": [
        {
          "internalType": "uint256",
          "name": "tokenId",
          "type": "uint256"
        },
        {
          "internalType": "uint256",
          "name": "price",
          "type": "uint256"
        },
        {
          "internalType": "address",
          "name": "seller",
          "type": "address"
        }
      ],
      "stateMutability": "view",
      "type": "function"
    },
    {
      "inputs": [
        {
          "internalType": "uint256",
          "name": "",
          "type": "uint256"
        }
      ],
      "name": "nftPrices",
      "outputs": [
        {
          "internalType": "uint256",
          "name": "",
          "type": "uint256"
        }
      ],
      "stateMutability": "view",
      "type": "function"
    },
    {
      "inputs": [
        {
          "internalType": "uint256",
          "name": "",
          "type": "uint256"
        }
      ],
      "name": "nftSellers",
      "outputs": [
        {
          "internalType": "address",
          "name": "",
          "type": "address"
        }
      ],
      "stateMutability": "view",
      "type": "function"
    },
    {
      "inputs": [
        {
          "internalType": "uint256",
          "name": "tokenId",
          "type": "uint256"
        }
      ],
      "name": "removeNFTFromSale",
      "outputs": [],
      "stateMutability": "nonpayable",
      "type": "function"
    }
  ],
  "transactionHash": "0xf3b5b0779e8d5d8b88d3a9f0f8d28d680174a8ae7e4808b937944cb9be389467",
  "args": [
    "0xCf7Ed3AccA5a467e9e704C703E8D87F634fB0Fc9"
  ],
  "numDeployments": 1,
  "solcInputHash": "271403296c1339971a6f8354e4a75e6e",
  "bytecode": "0x60806040523480156200001157600080fd5b506040516200107a3803806200107a8339818101604052810190620000379190620000e8565b806000806101000a81548173ffffffffffffffffffffffffffffffffffffffff021916908373ffffffffffffffffffffffffffffffffffffffff160217905550506200011a565b600080fd5b600073ffffffffffffffffffffffffffffffffffffffff82169050919050565b6000620000b08262000083565b9050919050565b620000c281620000a3565b8114620000ce57600080fd5b50565b600081519050620000e281620000b7565b92915050565b6000602082840312156200010157620001006200007e565b5b60006200011184828501620000d1565b91505092915050565b610f50806200012a6000396000f3fe6080604052600436106100705760003560e01c8063b2733b391161004e578063b2733b39146100f9578063d56d229d14610122578063d9f10a2b1461014d578063f10c71f81461018a57610070565b806351ed8288146100755780637c5bb03d14610091578063a02e5107146100d0575b600080fd5b61008f600480360381019061008a9190610a6a565b6101c7565b005b34801561009d57600080fd5b506100b860048036038101906100b39190610a6a565b61044c565b6040516100c793929190610ae7565b60405180910390f35b3480156100dc57600080fd5b506100f760048036038101906100f29190610a6a565b610496565b005b34801561010557600080fd5b50610120600480360381019061011b9190610b1e565b61069c565b005b34801561012e57600080fd5b506101376109c0565b6040516101449190610bbd565b60405180910390f35b34801561015957600080fd5b50610174600480360381019061016f9190610a6a565b6109e4565b6040516101819190610bd8565b60405180910390f35b34801561019657600080fd5b506101b160048036038101906101ac9190610a6a565b6109fc565b6040516101be9190610bf3565b60405180910390f35b60006001600083815260200190815260200160002054905060006002600084815260200190815260200160002060009054906101000a900473ffffffffffffffffffffffffffffffffffffffff1690506000821161025a576040517f08c379a000000000000000000000000000000000000000000000000000000000815260040161025190610c6b565b60405180910390fd5b81341461029c576040517f08c379a000000000000000000000000000000000000000000000000000000000815260040161029390610cd7565b60405180910390fd5b8073ffffffffffffffffffffffffffffffffffffffff166108fc349081150290604051600060405180830381858888f193505050501580156102e2573d6000803e3d6000fd5b5060008054906101000a900473ffffffffffffffffffffffffffffffffffffffff1673ffffffffffffffffffffffffffffffffffffffff166323b872dd3033866040518463ffffffff1660e01b815260040161034093929190610cf7565b600060405180830381600087803b15801561035a57600080fd5b505af115801561036e573d6000803e3d6000fd5b5050505060016000848152602001908152602001600020600090556002600084815260200190815260200160002060006101000a81549073ffffffffffffffffffffffffffffffffffffffff02191690556003600084815260200190815260200160002060008082016000905560018201600090556002820160006101000a81549073ffffffffffffffffffffffffffffffffffffffff021916905550507f9a12ad96f5fd2f8de7ff10aa35e001e28e8230e666679b6ce648728849ede63783833360405161043f93929190610ae7565b60405180910390a1505050565b60036020528060005260406000206000915090508060000154908060010154908060020160009054906101000a900473ffffffffffffffffffffffffffffffffffffffff16905083565b3373ffffffffffffffffffffffffffffffffffffffff166002600083815260200190815260200160002060009054906101000a900473ffffffffffffffffffffffffffffffffffffffff1673ffffffffffffffffffffffffffffffffffffffff1614610537576040517f08c379a000000000000000000000000000000000000000000000000000000000815260040161052e90610da0565b60405180910390fd5b60008054906101000a900473ffffffffffffffffffffffffffffffffffffffff1673ffffffffffffffffffffffffffffffffffffffff166323b872dd3033846040518463ffffffff1660e01b815260040161059493929190610cf7565b600060405180830381600087803b1580156105ae57600080fd5b505af11580156105c2573d6000803e3d6000fd5b5050505060016000828152602001908152602001600020600090556002600082815260200190815260200160002060006101000a81549073ffffffffffffffffffffffffffffffffffffffff02191690556003600082815260200190815260200160002060008082016000905560018201600090556002820160006101000a81549073ffffffffffffffffffffffffffffffffffffffff021916905550507f89d3341582f1a2018162ee1736d945f6c039d321321dc12accaccb767dea7f188133604051610691929190610dc0565b60405180910390a150565b3373ffffffffffffffffffffffffffffffffffffffff1660008054906101000a900473ffffffffffffffffffffffffffffffffffffffff1673ffffffffffffffffffffffffffffffffffffffff16636352211e846040518263ffffffff1660e01b815260040161070c9190610bd8565b602060405180830381865afa158015610729573d6000803e3d6000fd5b505050506040513d601f19601f8201168201806040525081019061074d9190610e15565b73ffffffffffffffffffffffffffffffffffffffff16146107a3576040517f08c379a000000000000000000000000000000000000000000000000000000000815260040161079a90610e8e565b60405180910390fd5b600081116107e6576040517f08c379a00000000000000000000000000000000000000000000000000000000081526004016107dd90610efa565b60405180910390fd5b806001600084815260200190815260200160002081905550336002600084815260200190815260200160002060006101000a81548173ffffffffffffffffffffffffffffffffffffffff021916908373ffffffffffffffffffffffffffffffffffffffff16021790555060008054906101000a900473ffffffffffffffffffffffffffffffffffffffff1673ffffffffffffffffffffffffffffffffffffffff166323b872dd3330856040518463ffffffff1660e01b81526004016108ad93929190610cf7565b600060405180830381600087803b1580156108c757600080fd5b505af11580156108db573d6000803e3d6000fd5b5050505060405180606001604052808381526020018281526020013373ffffffffffffffffffffffffffffffffffffffff1681525060036000848152602001908152602001600020600082015181600001556020820151816001015560408201518160020160006101000a81548173ffffffffffffffffffffffffffffffffffffffff021916908373ffffffffffffffffffffffffffffffffffffffff1602179055509050507fd2ab19646d6f9fdd37206f962b4ebaab8a4a23ad87f7695e7e1736803cb8bf748282336040516109b493929190610ae7565b60405180910390a15050565b60008054906101000a900473ffffffffffffffffffffffffffffffffffffffff1681565b60016020528060005260406000206000915090505481565b60026020528060005260406000206000915054906101000a900473ffffffffffffffffffffffffffffffffffffffff1681565b600080fd5b6000819050919050565b610a4781610a34565b8114610a5257600080fd5b50565b600081359050610a6481610a3e565b92915050565b600060208284031215610a8057610a7f610a2f565b5b6000610a8e84828501610a55565b91505092915050565b610aa081610a34565b82525050565b600073ffffffffffffffffffffffffffffffffffffffff82169050919050565b6000610ad182610aa6565b9050919050565b610ae181610ac6565b82525050565b6000606082019050610afc6000830186610a97565b610b096020830185610a97565b610b166040830184610ad8565b949350505050565b60008060408385031215610b3557610b34610a2f565b5b6000610b4385828601610a55565b9250506020610b5485828601610a55565b9150509250929050565b6000819050919050565b6000610b83610b7e610b7984610aa6565b610b5e565b610aa6565b9050919050565b6000610b9582610b68565b9050919050565b6000610ba782610b8a565b9050919050565b610bb781610b9c565b82525050565b6000602082019050610bd26000830184610bae565b92915050565b6000602082019050610bed6000830184610a97565b92915050565b6000602082019050610c086000830184610ad8565b92915050565b600082825260208201905092915050565b7f4e4654206973206e6f7420666f722073616c6500000000000000000000000000600082015250565b6000610c55601383610c0e565b9150610c6082610c1f565b602082019050919050565b60006020820190508181036000830152610c8481610c48565b9050919050565b7f496e636f7272656374207061796d656e74000000000000000000000000000000600082015250565b6000610cc1601183610c0e565b9150610ccc82610c8b565b602082019050919050565b60006020820190508181036000830152610cf081610cb4565b9050919050565b6000606082019050610d0c6000830186610ad8565b610d196020830185610ad8565b610d266040830184610a97565b949350505050565b7f4f6e6c79207468652073656c6c65722063616e2072656d6f766520746865204e60008201527f4654000000000000000000000000000000000000000000000000000000000000602082015250565b6000610d8a602283610c0e565b9150610d9582610d2e565b604082019050919050565b60006020820190508181036000830152610db981610d7d565b9050919050565b6000604082019050610dd56000830185610a97565b610de26020830184610ad8565b9392505050565b610df281610ac6565b8114610dfd57600080fd5b50565b600081519050610e0f81610de9565b92915050565b600060208284031215610e2b57610e2a610a2f565b5b6000610e3984828501610e00565b91505092915050565b7f4f6e6c7920746865206f776e65722063616e206c69737420746865204e465400600082015250565b6000610e78601f83610c0e565b9150610e8382610e42565b602082019050919050565b60006020820190508181036000830152610ea781610e6b565b9050919050565b7f5072696365206d7573742062652067726561746572207468616e207a65726f00600082015250565b6000610ee4601f83610c0e565b9150610eef82610eae565b602082019050919050565b60006020820190508181036000830152610f1381610ed7565b905091905056fea2646970667358221220108a2b267bda07be268bfc83845797d089e3dc8911d12867050c7394530f5ce964736f6c63430008180033",
  "devdoc": {
    "kind": "dev",
    "methods": {},
    "version": 1
  },
  "userdoc": {
    "kind": "user",
    "methods": {},
    "version": 1
  },
  "storageLayout": {
    "storage": [
      {
        "astId": 6173,
        "contract": "contracts/NFTmarkets.sol:NFTMarkets",
        "label": "nftContract",
        "offset": 0,
        "slot": "0",
        "type": "t_contract(ERC721)1093"
      },
      {
        "astId": 6177,
        "contract": "contracts/NFTmarkets.sol:NFTMarkets",
        "label": "nftPrices",
        "offset": 0,
        "slot": "1",
        "type": "t_mapping(t_uint256,t_uint256)"
      },
      {
        "astId": 6181,
        "contract": "contracts/NFTmarkets.sol:NFTMarkets",
        "label": "nftSellers",
        "offset": 0,
        "slot": "2",
        "type": "t_mapping(t_uint256,t_address)"
      },
      {
        "astId": 6186,
        "contract": "contracts/NFTmarkets.sol:NFTMarkets",
        "label": "nftListings",
        "offset": 0,
        "slot": "3",
        "type": "t_mapping(t_uint256,t_struct(NFTListing)6193_storage)"
      }
    ],
    "types": {
      "t_address": {
        "encoding": "inplace",
        "label": "address",
        "numberOfBytes": "20"
      },
      "t_contract(ERC721)1093": {
        "encoding": "inplace",
        "label": "contract ERC721",
        "numberOfBytes": "20"
      },
      "t_mapping(t_uint256,t_address)": {
        "encoding": "mapping",
        "key": "t_uint256",
        "label": "mapping(uint256 => address)",
        "numberOfBytes": "32",
        "value": "t_address"
      },
      "t_mapping(t_uint256,t_struct(NFTListing)6193_storage)": {
        "encoding": "mapping",
        "key": "t_uint256",
        "label": "mapping(uint256 => struct NFTMarkets.NFTListing)",
        "numberOfBytes": "32",
        "value": "t_struct(NFTListing)6193_storage"
      },
      "t_mapping(t_uint256,t_uint256)": {
        "encoding": "mapping",
        "key": "t_uint256",
        "label": "mapping(uint256 => uint256)",
        "numberOfBytes": "32",
        "value": "t_uint256"
      },
      "t_struct(NFTListing)6193_storage": {
        "encoding": "inplace",
        "label": "struct NFTMarkets.NFTListing",
        "members": [
          {
            "astId": 6188,
            "contract": "contracts/NFTmarkets.sol:NFTMarkets",
            "label": "tokenId",
            "offset": 0,
            "slot": "0",
            "type": "t_uint256"
          },
          {
            "astId": 6190,
            "contract": "contracts/NFTmarkets.sol:NFTMarkets",
            "label": "price",
            "offset": 0,
            "slot": "1",
            "type": "t_uint256"
          },
          {
            "astId": 6192,
            "contract": "contracts/NFTmarkets.sol:NFTMarkets",
            "label": "seller",
            "offset": 0,
            "slot": "2",
            "type": "t_address"
          }
        ],
        "numberOfBytes": "96"
      },
      "t_uint256": {
        "encoding": "inplace",
        "label": "uint256",
        "numberOfBytes": "32"
      }
    }
  }
}